:100B2F00CACAD2CBCEC2B6C8A3BA3236B6C800CA6A
:100B3F00B5CAB1CEC2B6C8A3BA00CACAD2CBCAAA66
:100B4F00B6C8A3BA34352500B6C800CAB5CAB1CAEB
:080B5F00AAB6C8A3BA002500E4
:030C7C000108006C
:10080000120BEF120B91120C47120BD4120BEF12BA
:100810000BEF120BEF120BD485120985140A851603
:100820001F8518227A0B7B2F7D01E4FF1209927A33
:100830000B7B3E7D02E4FF120992AB1F7D027F0518
:10084000120AEEAB227D027F06120AEE7A0B7B576C
:100850007D027F071209927A0B7B497D03E4FF1228
:1008600009927A0B7B5A7D04E4FF120992AB097D51
:10087000047F05120AEEAB0A7D047F06120AEE7AA7
:100880000B7B657D047F07120992120BEF120BEFB1
:03089000020BEF69
:100C1F008F28120C34D290C2918528A0D292D292F2
:050C2F00D292C29222E6
:060BB5007D017C007F08B9
:100BBB008F28ED4C6003120C34C290C2918528A093
:090BCB00D292D292D292C292227F
:0D0C5600D290D291C292C292D292AFA0224F
:100C340075A0FFC290D291D292E5A020E7FBC292A8
:030C4400AFA0223C
:100B91007D017C007F30120BBB7D017C007F011247
:100BA1000BBB7D017C007F06120BBB7D017C007FAE
:040BB1000C020BBB6C
:100BD4007D017C007F01120BBB7D017C007F341200
:0B0BE4000BBB7D017C007F30020BBBCF
:100B6700120BB5120BEF7D017C007F0C120BBB1231
:100B77000BEF120BB5120BEF7D017C007F0C120BF4
:0A0B8700BB120BEF120BB5020BEFCF
:100AEE008B24EDC3940150027D01EDD3940440029A
:100AFE007D0453070FED24FE600F14601114601374
:100B0E0024037012430780800D430790800843072B
:100B1E00888003430798E4FDFC120BBBAF24020C44
:010B2E001FA7
:060992008F248A258B264C
:10099800E4F527EDC3940150027D01EDD3940440A2
:1009A800027D0453240FED24FE600F1460111460BF
:1009B8001324037012430780800D43079080084377
:1009C800078880034307987D017C00120BBBE5264E
:1009D8002527F582E43525F583E493FFC394204069
:1009E80013E524D3940F50E6120C1F052705241293
:0409F8000C4780DA4E
:0109FC0022D8
:0E0C47007FB07E15EF1FAC0670011E4C70F6DC
:010C5500227C
:100BEF007D05AC051DEC60107E1C7F65EF1FAA060E
:080BFF0070011E4A60EC80F455
:010C070022CA
:100C0800D3EF9400EE9400400DE4FD0DBD1BFCEF06
:060C18001F70ED1E80EAD2
:010C1E0022B3
:0C0C63001524152415241524152415242F
:010C6F002262
:100AAB00E4FF750F02209307AE0F050FEE70F612E1
:100ABB000C63120C63120C63E4F51B309303751B70
:100ACB0001750F02309307AE0F050FEE70F6E50FB1
:100ADB006401600EE52325E0F523E51B42230FBFE0
:020AEB0008C041
:010AED0022E6
:10091F00C2937FB47E00120C08D293120C63120C98
:10092F0063120C63120C63D293209356750F02203F
:10093F009307AF0F050FEF70F6750F02309307AFE8
:10094F000F050FEF70F6120AAB85231E120AAB8547
:10095F002320120AAB85230D120AAB85230E120A30
:10096F00AB85231AD293E50D250E251E2520F51BE9
:10097F00B51A0F851E1C85201D850D0B850E0C8548
:03098F001A102219
:1009FD00E4FFFE12091FE51C75F00A842430FFE4A4
:100A0D00338FF0120A5FE51C75F00A84E5F024308F
:100A1D00FFE4339000028FF0120A7EE50B75F00AA9
:100A2D00842430FFE4339000048FF0120A7EE50B2E
:100A3D0075F00A84E5F02430FFE4339000068FF062
:100A4D00120A7EE4FEFF0FBF00010EBE0BF8BFB809
:010A5D00F5A3
:010A5E002275
:0C0C70007B007A0079111209FD020800D7
:0300000002089360
:0C089300787FE4F6D8FD7581280208DAB1
:100A5F00BB010A89828A83F0E5F0A3F0225006F7E2
:0F0A6F0009A7F01922BBFE06F3E5F009F31922DF
:100A7E00F8BB0111E58229F582E5833AF583E8F0AA
:100A8E00E5F0A3F0225009E92582C8F608A6F02267
:0D0A9E00BBFE09E92582C8F2E5F008F2224E
:10089F00020C70E493A3F8E493A34003F68001F2F3
:1008AF0008DFF48029E493A3F85407240CC8C3335A
:1008BF00C4540F4420C8834004F456800146F6DF29
:1008CF00E4800B0102040810204080900C7CE47E31
:1008DF00019360BCA3FF543F30E509541FFEE4931E
:1008EF00A360010ECF54C025E060A840B8E493A3E5
:1008FF00FAE493A3F8E493A3C8C582C8CAC583CA10
:10090F00F0A3C8C582C8CAC583CADFE9DEE780BEC7
:010C7F000074
:00000001FF
