:100B2A00B1BBB1A7C6F000CEB4B1A7C6F000C9F9EF
:100B3A00D2F4BFAA00C9F9D2F4B9D800B3B5D2D158
:100B4A00CBF800B3B5CEB4CBF800B0B2BEB200CC8D
:100B5A00E4BFDE00CEC2B6C83A00C9E3CACFB6C8FF
:0E0B6A0000CAAAB6C83A002500A5A5A5A5A5F3
:100D0B000126010108010125011213000100010058
:100D1B0001000100010001000100010001050E347A
:0B0D2B004310100105093443101001B3
:10094500120DBF120D61120E2A120DA4120DBF1247
:100955000DBF120DBF120DA4E51C6401451B7008E7
:100965007A0B7B317D0180077A0B7B2A7D01E4FFC1
:10097500120ABFE51E6401451D70087A0B7B4D7D8B
:100985000280077A0B7B467D02E4FF120ABFE52051
:100995006401451F70067A0B7B5980047A0B7B54E2
:1009A5007D027F04120ABFE4F56BF56C7429256C92
:1009B500F8E6F6056CE56C7002056B6402456B7034
:1009C500EB756D00756E02AF6E74272FF8E6FE7439
:1009D500252FF8A606056EE56E7002056D640445C3
:1009E5006D70E47A0B7B5E7D03E4FF120ABF7A002B
:1009F5007B277D037F03120ABF7A0B7B647D037F10
:100A050005120ABF7A0B7B6B7D04E4FF120ABF7ADD
:100A1500007B297D047F04120ABF7A0B7B717D045C
:0E0A25007F06120ABF120DBF120DBF020DBFD9
:100DF1008F73120E06D290C2918573A0D292D292B5
:050E0100D292C2922212
:060D85007D017C007F08E7
:100D8B008F73ED4C6003120E06C290C2918573A057
:090D9B00D292D292D292C29222AD
:0D0E3900D290D291C292C292D292AFA0226A
:100E060075A0FFC290D291D292E5A020E7FBC292D4
:030E1600AFA02268
:100D61007D017C007F30120D8B7D017C007F0112A3
:100D71000D8B7D017C007F06120D8B7D017C007F38
:040D81000C020D8BC8
:100DA4007D017C007F01120D8B7D017C007F34125C
:0B0DB4000D8B7D017C007F30020D8B59
:100D3700120D85120DBF7D017C007F0C120D8B12E9
:100D47000DBF120D85120DBF7D017C007F0C120DAA
:0A0D57008B120DBF120D85020DBFB7
:100BC0008B7CEDC3940150027D01EDD3940440026F
:100BD0007D0453070FED24FE600F146011146013A1
:100BE00024037012430780800D4307908008430759
:100BF000888003430798E4FDFC120D8BAF7C020D47
:010C0000F102
:060ABF008F6F8A708B713D
:100AC500E4F572EDC3940150027D01EDD394044029
:100AD500027D04536F0FED24FE600F146011146046
:100AE5001324037012430780800D43079080084349
:100AF500078880034307987D017C00120D8BE57103
:100B05002572F582E43570F583E493FFC3942040A4
:100B150013E56FD3940F50E6120DF10572056F12B0
:040B25000E2A80DA3A
:010B290022A9
:0E0E2A007FB07E15EF1FAC0670011E4C70F6F7
:010E38002297
:100DBF007D05AC051DEC60107E1C7F65EF1FAA063C
:080DCF0070011E4A60EC80F483
:010DD70022F9
:090E5300C2B0D2B1C294D2B222A5
:100DD800E4FEEF3392B3EF25E0FFD294A2B4E433FC
:080DE8004207C2940EBE08EAA6
:010DF00022E0
:100E1900C2B1120DD8AC07AF05120DD8D2B1AF04CB
:010E290022A6
:0C0E4600C2B1120DD87FFF120DD8D2B13E
:010E5200227D
:060CAB008B738A74897549
:100CB100C2B1120DD8AD07E4FCECC395765017E430
:100CC100FF120DD8AB73AA74A9758C82758300EFDE
:0A0CD1001209230C80E3D2B1AF0535
:010CDB0022F6
:060CDC008B708A71897221
:100CE200C2B1120DD8AD07E4FCECC395735015AB3D
:100CF20070AA71A9728C827583001208F6FF120D18
:080D0200D80C80E5D2B1AF0569
:010D0A0022C6
:100B780078777C007D007BFF7A0B79737E007F0598
:100B88001208D07B007A0079777573057F30120CD4
:100B9800DC7B007A0079777576057F10120CABE460
:100BA800FF74772FF8E6B4A5040FBF05F4EF6405CA
:070BB80060037F01227F00B2
:010BBF002213
:100C0100C2B07B007A0079097573057F2A120CDC6A
:100C11007D017F21120E197F22120E197D287F2559
:100C2100120E197D207F31120E197D0F7F26120EB3
:090C3100197F20120E19D2B02225
:060C3A007B007A00792B1B
:060C40008B6F8A708971C0
:100C46007F07120E46AB07AD037F27120E19EB3056
:100C5600E618AB6FAA70A9717576207F61120CAB8E
:0C0C66007DFF7FE2120E197F00227F014B
:010C7200225F
:100C7300120E53E4F580120DBF120C01120C3AEF61
:100C830070FA120C3AEF701BFFEF25E0242BF8E605
:100C9300FC08E6FDEF25E02413F8A60408A6050FDB
:080CA300BF08E612094580DAE2
:03000000020A33BE
:0C0A3300787FE4F6D8FD75817C020A7A19
:10080000E709F608DFFA8046E709F208DFFA803EDA
:1008100088828C83E709F0A3DFFA8032E309F608C7
:10082000DFFA8078E309F208DFFA807088828C832F
:10083000E309F0A3DFFA806489828A83E0A3F608E3
:10084000DFFA805889828A83E0A3F208DFFA804CBD
:1008500080D280FA80C680D4806980F28033801094
:1008600080A680EA809A80A880DA80E280CA8033FD
:1008700089828A83ECFAE493A3C8C582C8CCC58375
:10088000CCF0A3C8C582C8CCC583CCDFE9DEE78045
:100890000D89828A83E493A3F608DFF9ECFAA9F0C4
:1008A000EDFB2289828A83ECFAE0A3C8C582C8CC1A
:1008B000C583CCF0A3C8C582C8CCC583CCDFEADE33
:1008C000E880DB89828A83E493A3F208DFF980CC95
:1008D00088F0EF60010E4E60C388F0ED2402B4048E
:1008E0000050B9F582EB2402B4040050AF23234535
:0608F00082239008507302
:1008F600BB010CE58229F582E5833AF583E02250B7
:1009060006E92582F8E622BBFE06E92582F8E22200
:0D091600E58229F582E5833AF583E493221A
:10092300F8BB010DE58229F582E5833AF583E8F00A
:10093300225006E92582C8F622BBFE05E92582C8B6
:02094300F2229E
:100A3F00020C73E493A3F8E493A34003F68001F24E
:100A4F0008DFF48029E493A3F85407240CC8C333B8
:100A5F00C4540F4420C8834004F456800146F6DF87
:100A6F00E4800B0102040810204080900D0BE47EFF
:100A7F00019360BCA3FF543F30E509541FFEE4937C
:100A8F00A360010ECF54C025E060A840B8E493A343
:100A9F00FAE493A3F8E493A3C8C582C8CAC583CA6E
:100AAF00F0A3C8C582C8CAC583CADFE9DEE780BE26
:010D360000BC
:00000001FF
