:0F0B6500A5A5A5A5A5313131313131313131008F
:070B8A0005253443101001A2
:100B1D00D3EF9400EE940040147D6E7C00ED1D70BB
:0D0B2D00011CED4C70F7EF1F70E61E80E319
:010B3A002298
:090B8100C2A0D2A1C2B0D2A2228E
:100B3B00E4FEEF3392B1EF25E0FFD2B0A2A4E43391
:080B4B004207C2B00EBE08EA29
:010B5300227F
:100B5400C2A1120B3BAC07AF05120B3BD2A1AF04F1
:010B6400226E
:0C0B7400C2A1120B3BE4FF120B3BD2A10C
:010B80002252
:060ABE008B1C8A1D891E3D
:100AC400C2A1120B3BAD07E4FCECC3951F5017E425
:100AD400FF120B3BAB1CAA1DA91E8C82758300EF71
:0A0AE4001209230C80E3D2A1AF0534
:010AEE0022E5
:070A53007B00751A057F30DE
:060A5A008B178A188919B0
:100A6000C2A1120B3BAD07E4FCECC3951A5015ABC9
:100A700017AA18A9198C827583001208F6FF120BA9
:080A80003B0C80E5D2A1AF059B
:010A8800224B
:1009D10078207C007D007BFF7A0B79657E007F05A6
:1009E1001208D07A007920120A537B007A0079200C
:1009F100751F057F10120ABEE4FF74202FF8E6B4BC
:100A0100A5040FBF05F4EF640560037F01227F0099
:010A110022C2
:100A1200C2A07A007925120A537B007A00792575E3
:100A22001A057F2A120A5A7D017F21120B547F2256
:100A3200120B547D1A7F24120B547D287F25120B32
:100A4200547D0F7F26120B541D7F20120B54D2A00F
:010A52002281
:100A8900C2A0751A207FA0120A5AD2A020A2FD7F07
:100A990007120B74AB07AD037F27120B54EB30E43D
:100AA9000A7DFF7FE1120B547F1022EB30E5037FB3
:040AB90020227F0177
:010ABD002216
:100AEF0078087C007D007BFF7A0B796A7E007F0A95
:100AFF001208D0E4F512751301F514F515120B81D8
:0E0B0F00120A127B007A007908120A8980F51A
:03000000020945AD
:0C094500787FE4F6D8FD75812902098C4A
:10080000E709F608DFFA8046E709F208DFFA803EDA
:1008100088828C83E709F0A3DFFA8032E309F608C7
:10082000DFFA8078E309F208DFFA807088828C832F
:10083000E309F0A3DFFA806489828A83E0A3F608E3
:10084000DFFA805889828A83E0A3F208DFFA804CBD
:1008500080D280FA80C680D4806980F28033801094
:1008600080A680EA809A80A880DA80E280CA8033FD
:1008700089828A83ECFAE493A3C8C582C8CCC58375
:10088000CCF0A3C8C582C8CCC583CCDFE9DEE78045
:100890000D89828A83E493A3F608DFF9ECFAA9F0C4
:1008A000EDFB2289828A83ECFAE0A3C8C582C8CC1A
:1008B000C583CCF0A3C8C582C8CCC583CCDFEADE33
:1008C000E880DB89828A83E493A3F208DFF980CC95
:1008D00088F0EF60010E4E60C388F0ED2402B4048E
:1008E0000050B9F582EB2402B4040050AF23234535
:0608F00082239008507302
:1008F600BB010CE58229F582E5833AF583E02250B7
:1009060006E92582F8E622BBFE06E92582F8E22200
:0D091600E58229F582E5833AF583E493221A
:10092300F8BB010DE58229F582E5833AF583E8F00A
:10093300225006E92582C8F622BBFE05E92582C8B6
:02094300F2229E
:10095100020AEFE493A3F8E493A34003F68001F2C3
:1009610008DFF48029E493A3F85407240CC8C333A7
:10097100C4540F4420C8834004F456800146F6DF76
:10098100E4800B0102040810204080900B8AE47E71
:10099100019360BCA3FF543F30E509541FFEE4936B
:1009A100A360010ECF54C025E060A840B8E493A332
:1009B100FAE493A3F8E493A3C8C582C8CAC583CA5D
:1009C100F0A3C8C582C8CAC583CADFE9DEE780BE15
:010B91000063
:00000001FF
