:03000000020DEB03
:0C0DEB00787FE4F6D8FD758140020E32DE
:10133600A5A5A5A5A51F3F2F6F4FCF8F9F9F8FCF29
:0A1346004F6F2F3F1FA5A5A5A5A519
:1013180001080005143443101001050F3443101060
:0D13280001040B000000000419000000008B
:1013B300D3EF9400EE9400400DE4FD0DBD1BFCEF54
:0613C3001F70ED1E80EA20
:0113C9002201
:0C14180015371537153715371537153700
:0114240022A5
:100F7C00E4FF751F0220B307AE1F051FEE70F612BB
:100F8C001418121418121418E4F52430B303752431
:100F9C0001751F0230B307AE1F051FEE70F6E51F7B
:100FAC006401600EE52A25E0F52AE524422A0FBFEC
:020FBC0008C06B
:010FBE002210
:100E7700C2B37FB47E001213B3D2B3121418121484
:100E870018121418121418D2B320B356751F022063
:100E9700B307AF1F051FEF70F6751F0230B307AF1B
:100EA7001F051FEF70F6120F7C852A27120F7C850E
:100EB7002A28120F7C852A1D120F7C852A1E120FE5
:100EC7007C852A23D2B3E51D251E25272528F52451
:100ED700B5230F852725852826851D09851E0A85A3
:030EE700232022A3
:09145600C280D281C287D2822239
:1012B900E4FBFAEF339286EF25E0FFD287A284E4BC
:1012C900334207C2870BBB00010AEB64084A70E38B
:0112D90022F2
:0213F400AE0544
:1013F600C2811212B9AD07AF061212B9D281AF057A
:0114060022C3
:0C142500C2811212B9E4FF1212B9D28188
:011431002298
:0611D6008B3D8A3E893FBB
:1011DC00C2811212B9AE07E4FDEDC395405017E47D
:1011EC00FF1212B9AB3DAA3EA93F8D82758300EF69
:0A11FC00120B8C0D80E3D281AF06C8
:0112060022C5
:071100007B007540057F3004
:061107008B3D8A3E893F8A
:10110D00C2811212B9AE07E4FDEDC395405015AB87
:10111D003DAA3EA93F8D82758300120B4DFF121221
:08112D00B90D80E5D281AF0687
:011135002297
:100FBF0078377C007D007BFF7A1379367E007F05C2
:100FCF00120B277A0079371211007B007A007937DC
:100FDF007540057F101211D6E4FF74372FF8E6B471
:100FEF00A5040FBF05F4EF640560037F01227F00A6
:010FFF0022CF
:100F3800C2807A0079141211007B007A0079147546
:100F480040057F2A1211077D017F211213F47D01CC
:100F58007F221213F47D1A7F241213F47D287F2533
:100F68001213F47D097F261213F47D0E7F201213CD
:040F7800F4D280220D
:10116C00C2807540207FA0121107D2802082FD7FA3
:10117C0007121425AC07AD047F271213F4EC30E4EE
:10118C000A7DFF7FE11213F47F1022EC30E5037F20
:04119C0020227FFF8F
:0111A000222C
:1010C300D2B5C2B47F007E007D007C0020B5FDE474
:1010D300FBD2B47801120CAEC2B430B50DEF2401CB
:1010E300FFE43EFEE43DFDE43CFC0BBB18E3D2B45D
:0C10F300C2B47808120C9BD2B5E4FCFDDE
:0110FF0022CE
:101000001210C38F0E8E0D8D0C8C0B8F1C8E1B8DB2
:101010001A8C19AF1CAE1BAD1AAC19E4120998E476
:10102000FBFA799078401208FB7B6F7A127903788B
:101030003A1208071209D6E48F1C8E1BF51AF5190F
:01104000228D
:1012FA00D3EF9400EE940040147D6E7C00ED1D70D7
:0D130A00011CED4C70F7EF1F70E61E80E334
:0113170022B3
:08129100E993F5907F0E7E0049
:10129900E4FDFCC3ED9FEC9E5015E4FBFA0BBB008B
:0F12A900010AEB640C4A70F50DBD00010C80E4E6
:0112B8002213
:10135000753782E4F990133B12129109B908F6151A
:0813600037E537D3940050EB90
:011368002262
:10136900753782E4F990134312129109B908F615F9
:0813790037E537D3940050EB77
:011381002249
:1013CA00EF700FED700C7F96FE1212FA1213697FFE
:0513DA0001227F00224A
:10126500EF64017024ED6401701F20B7197F32FE11
:101275001212FA20B70D7F967E001212FA12135041
:0C1285007F00227F01227F01227F0122D6
:0C143F00C2AF53E71843E70143E78022E7
:09145F0053E77FE4F5E6C2AF2279
:0B144B0012143F75E64675E6B900225A
:10139B00AD07AC068CE3EDF5E453E5F843E501123C
:0813AB00144B12145FAFE222A3
:1013DF00EE54FEFEF5E3E4F5E453E5F843E50312BE
:0513EF00144B02145F25
:0912DA007E201213DFAD337E20EB
:1012E300AB07AA068AE3EBF5E453E5F843E5028D81
:0712F300E212144B02145F2C
:0F123800C2907FE87E03121247D2907FE87E03B8
:10124700D3EF9400EE940040147D6E7C00ED1D708A
:0D125700011CED4C70F7EF1F70E61E80E3E8
:011264002267
:09146800C2A0D2A1C2B0D2A2229E
:10138200E4FEEF3392B1EF25E0FFD2B0A2A4E43342
:081392004207C2B00EBE08EADA
:01139A002230
:10140700C2A1121382AC07AF05121382D2A1AF0497
:0114170022B2
:0C143200C2A1121382E4FF121382D2A1A7
:01143E00228B
:061207008B3D8A3E893F89
:10120D00C2A1121382AD07E4FCECC395405017E464
:10121D00FF121382AB3DAA3EA93F8C82758300EF6E
:0A122D00120B8C0C80E3D2A1AF0578
:011237002294
:071136007B007540057F30CE
:06113D008B3D8A3E893F54
:10114300C2A1121382AD07E4FCECC395405015AB6A
:101153003DAA3EA93F8C82758300120B4DFF1213EB
:08116300820C80E5D2A1AF056A
:01116B002261
:1010410078377C007D007BFF7A13794B7E007F052A
:10105100120B277A0079371211367B007A00793723
:101061007540057F10121207E4FF74372FF8E6B4BC
:10107100A5040FBF05F4EF640560037F01227F0023
:01108100224C
:10108200C2A07A0079141211367B007A00791475A5
:1010920040057F2A12113D7D017F211214077F2214
:1010A2001214077D1A7F241214077D287F2512143B
:1010B200077D0F7F261214071D7F20121407D2A06E
:0110C200220B
:1011A100C2A07540207FA012113DD2A020A2FD7FD8
:1011B10007121432AB07AD037F27121407EB30E49B
:1011C1000A7DFF7FE11214077F1022EB30E5037FD8
:0411D10020227F0158
:0111D50022F7
:100EEA00E4FFFE120E77E52575F00A842430120B12
:100EFA007AE52575F00A84E5F02430900001120B9A
:100F0A008CE50975F00A842430900002120B8CE5F6
:100F1A000975F00A84E5F02430900003120B8CE482
:0D0F2A00FEFF0FBF00010EBE0BF8BFB8F5B3
:010F37002297
:100CC100E4F533753401F535F536121468D290D256
:100CD10091D2A5121041EF600512123880F5121061
:100CE10082120FBFEF600512123880F5120F387FA4
:100CF100007E2012139B8F337B007A00792B120E1A
:100D0100EA121000E47BE87A03F9F8AF1CAE1BADE0
:100D11001AAC19120BEAE47B05FAF9F8C3120C8A32
:100D21004005752F308003752F31E5337003753021
:100D310031E533B4010375303020B60575313180AA
:100D4100037531307B007A00792B1211A1BF201776
:100D5100C2917F2C7E01121247D2917F0A7E00122E
:100D610012477535018003E4F535E5356401708876
:100D7100FB7A00792B12116CBF200DC2937F2C7E60
:100D810001121247D293801B05367F647E00121236
:100D910047E536D394024017C2927F2C7E0112128E
:100DA10047D2927F0A7E00121247E4F534F536AD40
:100DB10033AF341213CABF011AC2907F2C7E0112C5
:100DC1001247D2907F0A7E001212477533017F00CD
:100DD1001212DAAD33AF34121265EF6003020CF96F
:0A0DE100753301FF1212DA020CF95B
:10080000020A42E86480F8E933E83360110460F0DA
:10081000ED33EC337009E8FCE9FDEAFEEBFF22045E
:1008200060DED3EB9FEA9EE99DE8C2E78CF0C2F759
:1008300095F0400CE8CCF8E9CDF9EACEFAEBCFFB25
:10084000120A0D85D0F05804700320D5B3E8047067
:10085000075002B2D5020A4C92D5EC0460F7E4CC02
:10086000C0E0C398F8603B94186008400DD0E0FBEE
:10087000020A24E4FBFAC9FC8028E830E406E4C953
:10088000FBE4CAFCE830E305E4C9CACBFCE8540742
:100890006010F8C3E913F9EA13FAEB13FBEC13FC4D
:1008A000D8F130F52FC3E49CFCEF9BFFEE9AFEEDF0
:1008B00099FDD0E0FBEF4E4D4C701222DB03020A93
:1008C00049EC2CFCEF33FFEE33FEED33FDED30E76A
:1008D000EB020A24EF2BFFEE3AFEED39FDD0E0FBF0
:1008E00050130BBB0003020A4CED13FDEE13FEEF99
:0808F00013FFEC13FC020A24C3
:1008F800020A4CEC5D046005E859047003020A42E0
:10090800120A0D580460F6EC4860F2EC7004FDFE23
:10091800FF22C860DB2481C85009C39860025006D2
:10092800020A499850CAF582E9294B4A7005AB82F8
:10093800020A3875F0007C1A7880C3EF9BEE9AEDB6
:1009480099400DC3EF9BFFEE9AFEED99FDE842F04A
:10095800DC23ACF0D0E0FFD0E0FED0E0FDAB82209D
:10096800E7101BEB60BAEC2CFCEF33FFEE33FEED27
:1009780033FD020A24E803F830E705C0F075F000FB
:10098800EF2FFFEE33FEED33FD40B830E7C280AA0B
:1009980075F020800E75F010800575F0087D007EDA
:1009A800007F003392D530D503120C7CEC33401015
:1009B800EF33FFEE33FEED33FDEC33FCD5F0ED22E3
:0E09C800E5F0247EA2D513CC92E7CDCEFF221F
:1009D600EDD2E7CD33EC3392D524814006E4FFFE19
:1009E600FDFC22FCE4CFCECDCC24E0501174FF8078
:1009F600EDC3CC13CCCD13CDCE13CECF13CF047015
:070A0600F030D5DE020C7C8C
:100A0D00E9D2E7C933E833F892D5EDD2E7CD33EC2F
:070A1D0033FC5002B2D522A8
:100A2400EC30E7100FBF000C0EBE00080DBD000433
:100A34000BEB6014A2D5EB13FCED92E7FD2274FFDF
:100A4400FCFDFEFF22E480F8A2D574FF13FC7D8038
:030A5400E480EF4C
:100DF700020CC1E493A3F8E493A34003F68001F245
:100E070008DFF48029E493A3F85407240CC8C333FC
:100E1700C4540F4420C8834004F456800146F6DFCB
:100E2700E4800B0102040810204080901318E47E30
:100E3700019360BCA3FF543F30E509541FFEE493C0
:100E4700A360010ECF54C025E060A840B8E493A387
:100E5700FAE493A3F8E493A3C8C582C8CAC583CAB2
:100E6700F0A3C8C582C8CAC583CADFE9DEE780BE6A
:0113350000B7
:100A5700E709F608DFFA8046E709F208DFFA803E81
:100A670088828C83E709F0A3DFFA8032E309F6086E
:100A7700DFFA8078E309F208DFFA807088828C83D6
:100A8700E309F0A3DFFA806489828A83E0A3F6088A
:100A9700DFFA805889828A83E0A3F208DFFA804C64
:100AA70080D280FA80C680D4806980F2803380103B
:100AB70080A680EA809A80A880DA80E280CA8033A4
:100AC70089828A83ECFAE493A3C8C582C8CCC5831C
:100AD700CCF0A3C8C582C8CCC583CCDFE9DEE780EC
:100AE7000D89828A83E493A3F608DFF9ECFAA9F06B
:100AF700EDFB2289828A83ECFAE0A3C8C582C8CCC1
:100B0700C583CCF0A3C8C582C8CCC583CCDFEADED9
:100B1700E880DB89828A83E493A3F208DFF980CC3B
:100B270088F0EF60010E4E60C388F0ED2402B40434
:100B37000050B9F582EB2402B4040050AF232345DB
:060B47008223900AA7734F
:100B4D00BB010CE58229F582E5833AF583E022505D
:100B5D0006E92582F8E622BBFE06E92582F8E222A7
:0D0B6D00E58229F582E5833AF583E49322C1
:100B7A00BB010689828A83F0225002F722BBFE015A
:020B8A00F32254
:100B8C00F8BB010DE58229F582E5833AF583E8F09F
:100B9C00225006E92582C8F622BBFE05E92582C84B
:020BAC00F22233
:100BAE0075F008758200EF2FFFEE33FECD33CDCCFE
:100BBE0033CCC58233C5829BED9AEC99E582984081
:100BCE000CF582EE9BFEED9AFDEC99FC0FD5F0D65E
:100BDE00E4CEFBE4CDFAE4CCF9A88222B800C1B988
:100BEE000059BA002DEC8BF084CFCECDFCE5F0CBC6
:100BFE00F97818EF2FFFEE33FEED33FDEC33FCEBFF
:100C0E0033FB10D703994004EB99FB0FD8E5E4F9B9
:100C1E00FA227818EF2FFFEE33FEED33FDEC33FCA6
:100C2E00C933C910D7059BE99A4007EC9BFCE99A9A
:100C3E00F90FD8E0E4C9FAE4CCFB2275F010EF2FDF
:100C4E00FFEE33FEED33FDCC33CCC833C810D707DF
:100C5E009BEC9AE899400AED9BFDEC9AFCE899F81A
:0E0C6E000FD5F0DAE4CDFBE4CCFAE4C8F922AD
:0E0C7C00C3E49FFFE49EFEE49DFDE49CFC2289
:100C8A00EB9FF5F0EA9E42F0E99D42F0E89C45F0C0
:010C9A002237
:100C9B00E8600FECC313FCED13FDEE13FEEF13FF37
:030CAB00D8F1225B
:100CAE00E8600FEFC333FFEE33FEED33FDEC33FCA4
:030CBE00D8F12248
:00000001FF
