:100A20007777772E74786D63752E636F6D007777A7
:100A30007764646473002E2E2E2E2E2E2E2E2E2ED4
:040A40002E2E2E0028
:0709F900120A7C7F057E005D
:100A0000E4FDFCC3ED9FEC9E5015E4FBFA0BBB002C
:0F0A1000010AEB646E4A70F50DBD00010C80E425
:010A1F0022B4
:100A7C00D290C291C2928F801209FCD292120A00BB
:030A8C00C29222F1
:100A8F00D290C291C2928F901209FCD292120A0098
:030A9F00C29222DE
:100A4400EF70047F808013BF01047F90800CBF028D
:100A5400047F888005BF03027F98EF2DFF020A7C84
:100800001209ACAB07AA067C277D10120957EF240A
:1008100030F5087C277D10AF03AE021209577E0326
:100820007FE8CFCDCFCECCCE120957EF2430F509DB
:100830007C037DE8AF03AE021209577E007F64CFD0
:10084000CDCFCECCCE120957EF2430F50A7C007DF7
:1008500064AF03AE021209577E007F0ACFCDCFCE20
:10086000CCCE120957EF2430F50B7C007D0AAF0384
:10087000AE02120957ED2430F50C1209ACAA06ABF2
:10088000077C277D10120957ED2430F50D7E037F7C
:10089000E8CFCDCFCECCCE120957EF2430F50E7C69
:1008A000037DE8AF03AE021209577E007F64CFCD0F
:1008B000CFCECCCE120957EF2430F50F7C007D64EB
:1008C000AF03AE021209577E007F0ACFCDCFCECC48
:1008D000CE120957EF2430F510AE02AF037C007D35
:0908E0000A120957ED2430F5114C
:0108E90022EC
:100A6400D2B67F301209F97F0C1209F97F01120AFC
:080A74007C7F057E00020A00F0
:1008EA00C2A6C2A77F0A7E00120A00120A64E4FDA9
:1008FA007F01120A44E4F9E9900A2093FF60061284
:10090A000A8F0980F2E4FD7F02120A44E4F9E990B1
:10091A000A2E93FF6006120A8F0980F2E4FD7F0314
:10092A00120A44E4F9E9900A3693FF6006120A8F24
:10093A000980F2E4FDFF120A44120800E4F974087F
:0D094A0029F8E6FF120A8F09B90AF380E6CA
:03000000020AA24F
:0C0AA200787FE4F6D8FD7581150208EAA3
:10095700BC000BBE0029EF8DF084FFADF022E4CC84
:10096700F875F008EF2FFFEE33FEEC33FCEE9DEC4D
:10097700984005FCEE9DFE0FD5F0E9E4CEFD22ED93
:10098700F8F5F0EE8420D21CFEADF075F008EF2FDD
:10099700FFED33FD4007985006D5F0F222C398FDCE
:0509A7000FD5F0EA226B
:1009AC00AC12AD13AE14AF157810EC4D4E4F700465
:1009BC007CA57DA5C3EC13FCED13FDEE13FEEF132C
:1009CC00FF5010EC64CCFCED644CFDEE644EFEEF7D
:1009DC0064CEFFD8DF8C128D138E148F15EE547FDE
:0D09EC00FE228E128F1374A5F514F515224E
:00000001FF
