:03000000020B648C
:0C0B6400787FE4F6D8FD75815C020BABD5
:100ACF00D4DAB3B5C4DA00B1BBB1A7C6F00057573B
:100ADF00572E59554E4C4F4E47445A2E434E00CE2B
:100AEF00C2B6C8A3BA00CAAAB6C8A3BA00B3B5D2D1
:100AFF00D1CBF800B3B5D2D1BFAA00C9E3CACFB6E4
:100B0F00C820200025002020B0B2BEB22020002037
:100B1F0020B3B3C4D62020002020C9F9D2F4BFAA35
:100B2F00002020C9F9D2F4B9D80020202020BBB66C
:100B3F00D3ADCAB9D3C300C7EBB4F2BFAAB3B5C91B
:100B4F00CFB5C4B5E7D4B400A5A5A5A5A53131315E
:050B5F0031313131319C
:100E910001360101210101350105273443101001FB
:070EA100052234431010018B
:040DC1007F057E002C
:0A0DC500EF1FAC0670011E4C601217
:100DCF00E4F511E511C394FA50EC00000000051191
:020DDF0080F1A1
:010DE10022EF
:100E0200C2A37F1E7E00120DC5D2A37F327E0012C6
:0E0E12000DC5C2A37F1E7E00120DC5D2A32205
:100EA9002094117FF47E01120DC5209407E53504C5
:050EB9005401F5352293
:100EBE00C290D291D29200000000E580339200C21F
:030ECE0092A200ED
:010ED10022FE
:100E5C00120EBE40FBC290C291C29200008F800065
:0C0E6C00000000D29200000000C29222A0
:040E2000120A80FF33
:100E2400120EBE40FBD290C291C2928F800000008D
:0A0E340000D29200000000C29222DA
:100E3E00D2B67F34120E5C120DC17F30120E5C12D0
:0E0E4E000DC17F0C120E5C7F057E00020DC5EB
:100D9B00D2B67F34120E5C120DC17F30120E5C1274
:100DAB000DC17F0C120E5C120DC17F01120E5C7F08
:060DBB00057E00020DC5DB
:100ED200AD071FED600BE4FEEEC3940D50F20E80E1
:010EE200F718
:010EE30022EC
:100DE200EF70047F808013BF01047F90800CBF02EC
:100DF200047F888005BF03027F98EF2DFF020E5CFF
:10080000120E3EE4FDFF120DE2900004120A80B4C5
:100810003113E510900ACF93FF6007120E240510E4
:1008200080F0E4F521900004120A806430701FE526
:1008300010900AD693FF6007120E24051080F0E591
:1008400021700BE535B40106120E02752101E4F5A5
:1008500010E5357010E510900B3093FF6007120E15
:1008600024051080F0E4F510E535B40110E5109092
:100870000B2793FF6007120E24051080F0E4FD7F24
:1008800001120DE2E4F510900005120A80B4301058
:10089000E510900AFC93FF6007120E24051080F00B
:1008A000E4F510900005120A80B43110E510900BA9
:1008B0000393FF6007120E24051080F0E4F51090FA
:1008C0000006120A8064317020E510900B1E93FF21
:1008D0006007120E24051080F0E536B4010BE535F3
:1008E000B40106120E02E4F536E4F510900006128B
:1008F0000A80B43013E510900B1593FF6007120EB9
:1009000024051080F0753601E4FD7F02120DE2E44B
:10091000F510E510900AEE93FF6007120E24051003
:1009200080F0900002120E20900003120E20E4F5D9
:1009300010E510900B0A93FF6007120E240510803B
:10094000F0E4FD7F03120DE2E4F510E510900AF5E6
:1009500093FF6007120E24051080F0120A67FF1241
:100960000E24900001120E20900B13E493FF020E50
:010970002462
:100D3D00E4FD7F01120DE2E4FEEE900B3993FF60AE
:100D4D0006120E240E80F2E4FD7F02120DE2E4FE87
:0E0D5D00EE900B4693FF6006120E240E80F2FD
:010D6B002265
:090F0200C2B0D2B1C294D2B222F5
:100E7800E4FEEF3392B3EF25E0FFD294A2B4E4335B
:080E88004207C2940EBE08EA05
:010E9000223F
:100EE400C2B1120E78AC07AF05120E78D2B1AF04BE
:010EF40022DB
:0C0EF500C2B1120E787FFF120E78D2B14D
:010F010022CD
:060D0C008B168A178918FE
:100D1200C2B1120E78AD07E4FCECC395195017E48A
:100D2200FF120E78AB16AA17A9188C82758300EFF2
:0A0D3200120AAD0C80E3D2B1AF0548
:010D3C002294
:060D6C008B168A1789189E
:100D7200C2B1120E78AD07E4FCECC395195015AB65
:100D820016AA17A9188C82758300120A80FF120E08
:080D9200780C80E5D2B1AF0539
:010D9A002236
:100C520078107C007D007BFF7A0B79577E007F0540
:100C6200120A417B007A0079107519057F30120D46
:100C72006C7B007A0079107519057F10120D0CE457
:100C8200FF74102FF8E6B4A5040FBF05F4EF640556
:070C920060037F01227F00D7
:010C99002238
:100C9A00C2B07B007A0079227519057F2A120D6C81
:100CAA007D017F21120EE47F22120EE47D287F252A
:100CBA00120EE47D207F31120EE47D0F7F26120E84
:090CCA00E47F20120EE4D2B022F6
:060CD3007B007A00793776
:060CD9008B108A11891244
:100CDF007F07120EF5AB07AD037F27120EE4EB3043
:100CEF00E618AB10AA11A9127519207F61120D0C0D
:0C0CFF007DFF7FE2120EE47F00227F01E7
:010D0B0022C5
:100BF00078087C007D007BFF7A0B795C7E007F08A3
:100C0000120A41120F02E4F5807F0AFE120DC5128E
:100C10000D9B7B007A007908120800120C52EF70CD
:100C2000FA120C9A120D3D120CD3EF70FA120CD37B
:100C3000EF7011FF74372FF8E6FE742C2FF8A6061C
:100C40000FBF08F0120EA97B007A00792C12080061
:020C500080DB47
:100B7000020BF0E493A3F8E493A34003F68001F2A0
:100B800008DFF48029E493A3F85407240CC8C33386
:100B9000C4540F4420C8834004F456800146F6DF55
:100BA000E4800B0102040810204080900E91E47E46
:100BB000019360BCA3FF543F30E509541FFEE4934A
:100BC000A360010ECF54C025E060A840B8E493A311
:100BD000FAE493A3F8E493A3C8C582C8CAC583CA3C
:100BE000F0A3C8C582C8CAC583CADFE9DEE780BEF4
:010EA8000049
:10097100E709F608DFFA8046E709F208DFFA803E68
:1009810088828C83E709F0A3DFFA8032E309F60855
:10099100DFFA8078E309F208DFFA807088828C83BD
:1009A100E309F0A3DFFA806489828A83E0A3F60871
:1009B100DFFA805889828A83E0A3F208DFFA804C4B
:1009C10080D280FA80C680D4806980F28033801022
:1009D10080A680EA809A80A880DA80E280CA80338B
:1009E10089828A83ECFAE493A3C8C582C8CCC58303
:1009F100CCF0A3C8C582C8CCC583CCDFE9DEE780D3
:100A01000D89828A83E493A3F608DFF9ECFAA9F051
:100A1100EDFB2289828A83ECFAE0A3C8C582C8CCA7
:100A2100C583CCF0A3C8C582C8CCC583CCDFEADEC0
:100A3100E880DB89828A83E493A3F208DFF980CC22
:100A410088F0EF60010E4E60C388F0ED2402B4041B
:100A51000050B9F582EB2402B4040050AF232345C2
:060A610082239009C1731D
:100A6700BB010689828A83E0225002E722BBFE028D
:090A7700E32289828A83E49322C0
:100A8000BB010CE58229F582E5833AF583E022502B
:100A900006E92582F8E622BBFE06E92582F8E22275
:0D0AA000E58229F582E5833AF583E493228F
:100AAD00F8BB010DE58229F582E5833AF583E8F07F
:100ABD00225006E92582C8F622BBFE05E92582C82B
:020ACD00F22213
:00000001FF
