:03000000020B5C94
:0C0B5C00787FE4F6D8FD75815C020BA3E5
:100ACF00D4DAB3B5C4DA00B1BBB1A7C6F00057573B
:100ADF00572E59554E4C4F4E47445A2E434E00CE2B
:100AEF00C2B6C8A3BA00CAAAB6C8A3BA00B3B5D2D1
:100AFF00D1CBF800B3B5D2D1BFAA00C9E3CACFB6E4
:100B0F00C820200025002020B0B2BEB22020002037
:100B1F0020B3B3C4D62020002020C9F9D2F4BFAA35
:100B2F00002020C9F9D2F4B9D80020202020BBB66C
:100B3F00D3ADCAB9D3C300C7EBB4F2BFAAB3B5C91B
:0D0B4F00CFB5C4B5E7D4B400A5A5A5A5A5F4
:100E7100013601012101013501052734431010011B
:070E810005223443101001AB
:040DA1007F057E004C
:0A0DA500EF1FAC0670011E4C601237
:100DAF00E4F509E509C394FA50EC000000000509C9
:020DBF0080F1C1
:010DC100220F
:100DE200C2A37F1E7E00120DA5D2A37F327E001207
:0E0DF2000DA5C2A37F1E7E00120DA5D2A32266
:100E89002094117FF47E01120DA5209407E5350405
:050E99005401F53522B3
:100E9E00C2B5D2B6D2B400000000E580339200C2D3
:030EAE00B4A200EB
:010EB100221E
:100E3C00120E9E40FBC2B5C2B6C2B400008F800039
:0C0E4C00000000D2B400000000C2B4227C
:040E0000120A80FF53
:100E0400120E9E40FBD2B5C2B6C2B48F8000000061
:0A0E140000D2B400000000C2B422B6
:100E1E00D2B77F34120E3C120DA17F30120E3C124F
:0E0E2E000DA17F0C120E3C7F057E00020DA56B
:100D7B00D2B77F34120E3C120DA17F30120E3C12F3
:100D8B000DA17F0C120E3C120DA17F01120E3C7FA8
:060D9B00057E00020DA51B
:100EB200AD071FED600BE4FEEEC3940D50F20E8001
:010EC200F738
:010EC300220C
:100DC200EF70047F808013BF01047F90800CBF020C
:100DD200047F888005BF03027F98EF2DFF020E3C3F
:10080000120E1EE4FDFF120DC2900004120A80B405
:100810003113E508900ACF93FF6007120E04050814
:1008200080F0E4F521900004120A806430701FE526
:1008300008900AD693FF6007120E04050880F0E5C1
:1008400021700BE535B40106120DE2752101E4F5C6
:1008500008E5357010E508900B3093FF6007120E25
:1008600004050880F0E4F508E535B40110E50890CA
:100870000B2793FF6007120E04050880F0E4FD7F4C
:1008800001120DC2E4F508900005120A80B4301080
:10089000E508900AFC93FF6007120E04050880F03B
:1008A000E4F508900005120A80B43110E508900BB9
:1008B0000393FF6007120E04050880F0E4F508902A
:1008C0000006120A8064317020E508900B1E93FF29
:1008D0006007120E04050880F0E536B4010BE5351B
:1008E000B40106120DE2E4F536E4F50890000612B4
:1008F0000A80B43013E508900B1593FF6007120EC1
:1009000004050880F0753601E4FD7F02120DC2E493
:10091000F508E508900AEE93FF6007120E0405083B
:1009200080F0900002120E00900003120E00E4F519
:1009300008E508900B0A93FF6007120E0405088073
:10094000F0E4FD7F03120DC2E4F508E508900AF516
:1009500093FF6007120E04050880F0120A67FF1269
:100960000E04900001120E00900B13E493FF020E90
:010970000482
:100D1D00E4FD7F01120DC2E4FEEE900B3993FF60EE
:100D2D0006120E040E80F2E4FD7F02120DC2E4FEE7
:0E0D3D00EE900B4693FF6006120E040E80F23D
:010D4B002285
:090EE200C2A0D2A1C290D2A2224A
:100E5800E4FEEF339291EF25E0FFD290A2A4E433B1
:080E68004207C2900EBE08EA29
:010E7000225F
:100EC400C2A1120E58AC07AF05120E58D2A1AF043E
:010ED40022FB
:0C0ED500C2A1120E587FFF120E58D2A1CD
:010EE10022EE
:060CEC008B0E8A0F891037
:100CF200C2A1120E58AD07E4FCECC395115017E4E3
:100D0200FF120E58AB0EAA0FA9108C82758300EF4A
:0A0D1200120AAD0C80E3D2A1AF0578
:010D1C0022B4
:060D4C008B0E8A0F8910D6
:100D5200C2A1120E58AD07E4FCECC395115015ABBD
:100D62000EAA0FA9108C82758300120A80FF120E40
:080D7200580C80E5D2A1AF0589
:010D7A002256
:100C320078087C007D007BFF7A0B79577E007F0568
:100C4200120A417B007A0079087511057F30120D76
:100C52004C7B007A0079087511057F10120CECE4C8
:100C6200FF74082FF8E6B4A5040FBF05F4EF64057E
:070C720060037F01227F00F7
:010C79002258
:100C7A00C2A07B007A0079227511057F2A120D4CD9
:100C8A007D017F21120EC47F22120EC47D287F258A
:100C9A00120EC47D207F31120EC47D0F7F26120EE4
:090CAA00C47F20120EC4D2A02266
:060CB3007B007A00793796
:060CB9008B088A09890A7C
:100CBF007F07120ED5AB07AD037F27120EC4EB30A3
:100CCF00E618AB08AA09A90A7511207F61120CEC6E
:0C0CDF007DFF7FE2120EC47F00227F0127
:010CEB0022E6
:100BE800120EE2E4F5807F0AFE120DA5C2A6C2A786
:100BF800120D7B120C32EF70FA120C7A120D1D12C4
:100C08000CB3EF70FA120CB3EF7011FF74372FF8B2
:100C1800E6FE742C2FF8A6060FBF08F0120E897B8B
:0A0C2800007A00792C12080080DB2E
:100B6800020BE8E493A3F8E493A34003F68001F2B0
:100B780008DFF48029E493A3F85407240CC8C3338E
:100B8800C4540F4420C8834004F456800146F6DF5D
:100B9800E4800B0102040810204080900E71E47E6E
:100BA800019360BCA3FF543F30E509541FFEE49352
:100BB800A360010ECF54C025E060A840B8E493A319
:100BC800FAE493A3F8E493A3C8C582C8CAC583CA44
:100BD800F0A3C8C582C8CAC583CADFE9DEE780BEFC
:010E88000069
:10097100E709F608DFFA8046E709F208DFFA803E68
:1009810088828C83E709F0A3DFFA8032E309F60855
:10099100DFFA8078E309F208DFFA807088828C83BD
:1009A100E309F0A3DFFA806489828A83E0A3F60871
:1009B100DFFA805889828A83E0A3F208DFFA804C4B
:1009C10080D280FA80C680D4806980F28033801022
:1009D10080A680EA809A80A880DA80E280CA80338B
:1009E10089828A83ECFAE493A3C8C582C8CCC58303
:1009F100CCF0A3C8C582C8CCC583CCDFE9DEE780D3
:100A01000D89828A83E493A3F608DFF9ECFAA9F051
:100A1100EDFB2289828A83ECFAE0A3C8C582C8CCA7
:100A2100C583CCF0A3C8C582C8CCC583CCDFEADEC0
:100A3100E880DB89828A83E493A3F208DFF980CC22
:100A410088F0EF60010E4E60C388F0ED2402B4041B
:100A51000050B9F582EB2402B4040050AF232345C2
:060A610082239009C1731D
:100A6700BB010689828A83E0225002E722BBFE028D
:090A7700E32289828A83E49322C0
:100A8000BB010CE58229F582E5833AF583E022502B
:100A900006E92582F8E622BBFE06E92582F8E22275
:0D0AA000E58229F582E5833AF583E493228F
:100AAD00F8BB010DE58229F582E5833AF583E8F07F
:100ABD00225006E92582C8F622BBFE05E92582C82B
:020ACD00F22213
:00000001FF
