:03000000020A8071
:0C0A8000787FE4F6D8FD758147020AC7B4
:100B0C00543A0020204F46460020204F4E20002013
:100B1C004E4F4953590020515549455400483A000D
:100B2C0020205945530020204E4F20002053544F75
:100B3C0050202020002053544152542020002020CB
:100B4C0020205455524E204F4E005354524F4C4C73
:100B5C004552275320504F57455200A5A5A5A5A592
:100D9A00011D01010801011C01050E344310100157
:070DAA00050934431010019C
:100CB100C2A37F147E00120CC9D2A37F0A7E001248
:080CC1000CC9C2A37F147E00E0
:100CC900D3EF9400EE940040147D7B7C00ED1D7001
:0D0CD900011CED4C70F7EF1F70E61E80E36C
:010CE60022EB
:100DF300120CB1D2A3120CC5120CB1D2A37F027E86
:040E030000020CC914
:100DDE002094117FF47E01120CC9209407E51C04A7
:050DEE005401F51C2278
:100DB200C2B58F80D2B47F017E00120CC9C2B47F4B
:060DC200017E00020CC9D5
:0A0D4700AB3EAA3FA94012090FFFBE
:100D5100D2B58F80D2B47F017E00120CC9C2B47F9C
:060D6100017E00020CC936
:100DC8001208F6FFD39400400C120D51740129F952
:060DD800E43AFA80EB2270
:100C0400C2B4C2B67F0F7E00120CC97F38120DB277
:100C14007F0F7E00120CC97F0C120DB27F057E007F
:100C2400120CC97F01120DB27F057E00120CC97F20
:0B0C340006120DB27F057E00020CC905
:10095E008B3E8A3F89407F80120DB27BFF7A0B79E6
:10096E000C120DC87F017E00120CC9900002120DF0
:10097E0047900003120D477F017E00120CC9E51C43
:10098E0070097BFF7A0B790F120DC8E51CB40109B3
:10099E007BFF7A0B7915120DC8AB3EAA3FA940908A
:1009AE00000612090FB431197BFF7A0B791B120D59
:1009BE00C8E51DB4010BE51CB40106120DF3E4F5F8
:1009CE001DAB3EAA3FA94090000612090FB4300C91
:1009DE007BFF7A0B7922120DC8751D017F017E00F7
:1009EE00120CC97FC0120DB27F017E00120CC97BA2
:1009FE00FF7A0B7929120DC8AB3EAA3FA940120807
:100A0E00F6FF120D51AB3EAA3FA940900001120D08
:100A1E004DAB3EAA3FA94090000412090FB4310C11
:100A2E007BFF7A0B792C120DC8E4F508AB3EAA3F7A
:100A3E00A94090000412090FB430187BFF7A0B798D
:100A4E0032120DC8E508700BE51CB40106120DF349
:100A5E00750801AB3EAA3FA94090000512090F7B15
:100A6E00FFB430067A0B793880047A0B7941120D77
:020A7E00C8228C
:100D67007F80120DB27BFF7A0B794A120DC87FC0C4
:0A0D7700120DB27A0B7956020DC876
:090E2500C2A0D2A1C290D2A22207
:100D8100E4FEEF339291EF25E0FFD290A2A4E43389
:080D91004207C2900EBE08EA01
:010D99002237
:100E0700C2A1120D81AC07AF05120D81D2A1AF04AB
:010E170022B8
:0C0E1800C2A1120D817FFF120D81D2A13A
:010E240022AB
:060CE7008B448A4589469A
:100CED00C2A1120D81AD07E4FCECC395475017E48A
:100CFD00FF120D81AB44AA45A9468C82758300EF86
:0A0D0D0012093C0C80E3D2A1AF05EF
:010D170022B9
:060D18008B448A45894668
:100D1E00C2A1120D81AD07E4FCECC395475015AB93
:100D2E0044AA45A9468C8275830012090FFF120D45
:080D3E00810C80E5D2A1AF0594
:010D4600228A
:100BBC00783E7C007D007BFF7A0B79677E007F0599
:100BCC001208D07B007A00793E7547057F30120DF4
:100BDC00187B007A00793E7547057F10120CE7E40C
:100BEC00FF743E2FF8E6B4A5040FBF05F4EF6405BF
:070BFC0060037F01227F006E
:010C030022CE
:100C3F00C2A07B007A0079097547057F2A120D182B
:100C4F007D017F21120E077F22120E077D287F253F
:100C5F00120E077D207F31120E077D0F7F26120E99
:090C6F00077F20120E07D2A0221B
:060C78007B007A00791EEA
:060C7E008B3E8A3F894015
:100C84007F07120E18AB07AD037F27120E07EB3058
:100C9400E618AB3EAA3FA9407547207F61120CE7D6
:0C0CA4007DFF7FE2120E077F00227F011F
:010CB0002221
:100B6C00120E25E4F5807F0AFE120CC9C2A6C2A79C
:100B7C00120C04120BBCEF6004C29780F6D29712D1
:100B8C000C3F120D67120C78EF70FA120C78EF70A4
:100B9C0011FF741E2FF8E6FE74132FF8A6060FBF74
:100BAC0008F0120DDE7B007A00791312095E80DBEF
:100A8C00020B6CE493A3F8E493A34003F68001F209
:100A9C0008DFF48029E493A3F85407240CC8C3336B
:100AAC00C4540F4420C8834004F456800146F6DF3A
:100ABC00E4800B0102040810204080900D9AE47E23
:100ACC00019360BCA3FF543F30E509541FFEE4932F
:100ADC00A360010ECF54C025E060A840B8E493A3F6
:100AEC00FAE493A3F8E493A3C8C582C8CAC583CA21
:100AFC00F0A3C8C582C8CAC583CADFE9DEE780BED9
:010DB1000041
:10080000E709F608DFFA8046E709F208DFFA803EDA
:1008100088828C83E709F0A3DFFA8032E309F608C7
:10082000DFFA8078E309F208DFFA807088828C832F
:10083000E309F0A3DFFA806489828A83E0A3F608E3
:10084000DFFA805889828A83E0A3F208DFFA804CBD
:1008500080D280FA80C680D4806980F28033801094
:1008600080A680EA809A80A880DA80E280CA8033FD
:1008700089828A83ECFAE493A3C8C582C8CCC58375
:10088000CCF0A3C8C582C8CCC583CCDFE9DEE78045
:100890000D89828A83E493A3F608DFF9ECFAA9F0C4
:1008A000EDFB2289828A83ECFAE0A3C8C582C8CC1A
:1008B000C583CCF0A3C8C582C8CCC583CCDFEADE33
:1008C000E880DB89828A83E493A3F208DFF980CC95
:1008D00088F0EF60010E4E60C388F0ED2402B4048E
:1008E0000050B9F582EB2402B4040050AF23234535
:0608F00082239008507302
:1008F600BB010689828A83E0225002E722BBFE0200
:09090600E32289828A83E4932232
:10090F00BB010CE58229F582E5833AF583E022509D
:10091F0006E92582F8E622BBFE06E92582F8E222E7
:0D092F00E58229F582E5833AF583E4932201
:10093C00F8BB010DE58229F582E5833AF583E8F0F1
:10094C00225006E92582C8F622BBFE05E92582C89D
:02095C00F22285
:00000001FF
